:040000006F00504CF1
:100004000000000000000000900000201E080020F6
:10001400A9BDF9F5940000200000000000000000D4
:10002400960000209800002000000000000000005E
:100034000C050020000000008405002000000000E2
:100044000C0500200C0500200C0500200C050020E8
:100054000C0500200C0500200C0500200C050020D8
:100064000C0500200C0500200C0500200C050020C8
:100074000C0500200C0500200C0500200C050020B8
:100084000C0500200C0500200C0500200C050020A8
:1000940001A001A001A001A001A001A001A001A054
:1000A40001A001A001A001A001A001A001A001A044
:1000B40001A001A001A001A001A001A001A001A034
:1000C40001A001A001A00000000000000000000049
:1000D400000000000000000000000000000000001C
:1000E400000000000000000000000000000000000C
:1000F40000000000000000005A060020000000007C
:1001040000000000000000009E00002058010020B4
:10011400A2000020A4000020A6000020A8000020C7
:10012400AA00002000000000AE000020B000002063
:10013400B200002002060020B6000020B800002013
:1001440000000000BC000020BE000020C000002011
:10015400C2000020C40000204111B717004022C48F
:1001640003D4C70906C6420441809317340163DBF4
:100174000700971700009387E7B98843971000E0BA
:10018400E780000FB7170040239E8708B24022443F
:100194004101828097170000938707B888438280C3
:1001A400411122C42A8406C6B1249717000023A54E
:1001B40087B62244B2404101A1A497170000938757
:1001C400A7B59C43411106C68507171700002325D0
:1001D400F7B4F5203C41FD173CC181E75C5D3CC1AF
:1001E400DD20B240410189AA18415C415CC398C337
:1001F40048C108C182805C418CC3DCC14CC188C148
:1002040082801C413385A740133515008280184134
:100214005C415CC398C348C108C182805C418CC303
:10022400DCC14CC188C1828018415C415CC398C365
:1002340048C108C182801C413385A740133515008D
:100244008280411122C406C6752283D741832A8441
:10025400B9E3938701848843971000E0E780C07B6B
:100264001307F5FF931637009387412FB6978C43F6
:100274009386018388429387C5FE630EF500238627
:10028400E18223A8F1829717000083C727A971058B
:10029400A10599E7612222852244B24041018DA241
:1002A4003124D5BF5C418CC3DCC14CC188C1828080
:1002B40018415C415CC398C348C108C182809387DC
:1002C400018388438280011122CC26CA06CE1D22D6
:1002D4009387018380430547AA8483474403BD8BE6
:1002E400639CE70258481C4C6308F70293054401D9
:1002F4002E852EC6753F83475403B2451385412F7F
:100304008E073E9545372685E528253FF240624411
:10031400D2440145056182802685DD20C5BF184190
:100324005C415CC398C348C108C182801C413385C9
:10033400A740133515008280397126DA240006DEC1
:100344004AD852D456D25AD05ECE22DC4ED626C6D5
:1003540026C48935AA8B3709008069282A8A938A9A
:1003640081841349E9FF0D4B13858184C13711CD75
:1003740052857920F2506254D2544259B259225AC9
:10038400925A025BF24B2161828003A40A0048481E
:100394009309C4FE3385AB40E36CA9FC4E859720DA
:1003A40000E0E780800A834754FF13F7270001E742
:1003B400F99BA30AF4FEA2474844C0C31CC01C44D2
:1003C40022C444C08297F933AA8B2685853749FD18
:1003D4002285B137834754FF13F73700E31667F9D3
:1003E400F99BA30AF4FE4E85972000E0E780800E77
:1003F400A5BF000073750430010001008280010074
:10040400731005308280010003210500B72200002B
:100414009382028873900230B1A001001301C1F8E5
:100424002320250006C006C216C41AC61EC822CA46
:1004340026CC2ACE2ED032D236D43AD63ED842DA80
:1004440046DC4ADECEC0D2C2D6C4DAC6DEC8E2CAB0
:10045400E6CCEACEEED0F2D2F6D4FAD6FED803A198
:10046400050009A00245731015349240A24232439C
:10047400C2435244E244724582551256A256325740
:10048400C2575258E25872598649164AA64A364B00
:10049400C64B564CE64C764D865D165EA65E365FC0
:1004A400C65F1301410773002030000093878185E4
:1004B4009C4399E323A8A18423AAB184854723AC50
:1004C400F1841167B7E700E023A0E720828041119F
:1004D4001375F50722C40A0517040000130404BFAA
:1004E4002A941C4006C691CF971000E0E78080DF75
:1004F4001C4082972244B2404101171300E0670078
:1005040023DFB24022444101828000007310013491
:1005140017810000130101AF73252034EFF03FFB76
:100524007321003473002030B722000093820288C4
:100534007390023013844185044003A104000245F2
:10054400731015349240A2423243C2435244E244EF
:10055400724582551256A2563257C2575258E25823
:1005640072598649164AA64A364BC64B564CE64C37
:10057400764D865D165EA65E365FC65F1301410743
:10058400730020301301C1F806C216C41AC61EC86F
:1005940022CA26CC2ACE2ED032D236D43AD63ED84F
:1005A40042DA46DC4ADECEC0D2C2D6C4DAC6DEC8DF
:1005B400E2CAE6CCEACEEED0F2D2F6D4FAD6FED82F
:1005C4001384818523200400732510342AC01384E6
:1005D4000185044023A02400B722000093820280F6
:1005E4007390023097020000938242F473901234A5
:1005F4007300203000001C413385A74013351500DB
:10060400828037370040834747409946BD8B6381DA
:10061400D70231476385E7001147639FE702411121
:1006240022C426C206C6373400409384814319A8E5
:10063400834757408280834584402685973000E075
:10064400E78000FE8347A44093F7F70FEDF7B2402D
:1006540022449244410182808280411106C6B13E07
:10066400B240B7F700E023A2070041018280B71728
:100674000040930670052380D704130780FA238073
:10068400E7040100010003C6B7041376F60DA38541
:10069400C70423800704137605024DC203C6A700CE
:1006A400118A1DE22380D7042380E704010001009E
:1006B40003C7A700136747002385E7009307004B90
:1006C40001000100FD17EDFFB71700409306700508
:1006D4002380D704130780FA2380E7040100010074
:1006E4007D892394A70001000100010001002380FB
:1006F40007042380D7042380E704010001000100DC
:1007040001003727004093061005A303D7802380F8
:100714000704B7170040130770052380E704130785
:1007240080FA2380E7040100010003C7B7041367BC
:100734000708A385E7042380070482801376050451
:1007440041C603C6A700418A1DE22380D704238043
:10075400E7040100010003C7A7001367070123850D
:10076400E7009307007D01000100FD17EDFFB717B7
:100774000040930670052380D704130780FA238072
:10078400E704010001001376F501136606042394BF
:10079400C700010001000100010023800704238039
:1007A400D704130660042380E7046318C50001001E
:1007B400010037270040894689BF0100010037271F
:1007C40000409306200591B72380D7042380E704D3
:1007D4000100010003D787001367070C2394E70087
:1007E4000DBF4111814601468145114506C6A5222A
:1007F400B7170040130770052380E704130780FA36
:100804002380E7040100010003C76704136717008E
:100814002383E70423800704B24041018280814698
:10082400014681451145052AB71700409306700516
:100834002380D704130780FA2380E7040100010012
:100844007D562396C7022380D7042380E704010042
:10085400010003C76704136717002383E704238099
:10086400070401A0BD473305F50201007D1575FDA0
:100874008280411122C426C206C6AA840144631799
:100884009400B2402244924441018280050413053D
:10089400803E4204C13F4180DDB7230304801547F5
:1008A4002303E48001002302A48082808307648000
:1008B400E3CE07FE23030480828083076480E3CEB3
:1008C40007FE03454480828083076480E3CE07FEED
:1008D4002302A4808280411126C44AC24EC006C6A7
:1008E4001377F50BAD47AA892E8995446306F70063
:1008F40019456537653F8D444E854537FD59FD14CF
:1009040063983401B240A244124982494101828071
:10091400135509011375F50F453F2209CDB7011190
:1009240026CC06CEB704080051371545BD377137BC
:1009340069372AC6A53F32459377150089EB1365BD
:1009440015001375F50FF240E24405618280FD1431
:10095400E9FC0145CDBF397126DC4ADA4ED852D6BE
:1009640056D45AD25ED006DE62CE66CCB7E700E03B
:100974007D5783AA070022C603AA470023A0E718CD
:1009840023A2E718B7170040130770052380E70474
:10099400130780FA2380E70483C74704930B75FF8A
:1009A400B684E20793FBFB0F8546AA892E8B328916
:1009B40037240040E187015763FA76016308D500C4
:1009C4008946130700026313D5000157D98F93F7A3
:1009D400F70FB71C00402382FC0411472303E48073
:1009E4001305F00F5D3D094CD135636D7C11B705DE
:1009F4000700DA9537870700795563F2E504B38772
:100A04009500636EF702370B0800A94733EB6501C5
:100A14006399F90689E48144513D26850DA0DA8560
:100A24000945553D05090345F9FFFD14050B693DCD
:100A340081C49377FB0FFDF7DD3569FD7D55B7174D
:100A44000040130770052380E704130780FA23800E
:100A5400E70403C74704418B2382E704F250B7E756
:100A640000E023A0571123A24711E2543244525903
:100A7400C259325AA25A125B825B724CE24C216117
:100A84008280A5476395F90685691309F00FB306BB
:100A94009900B3742B01B6941349F9FFB374990008
:100AA400856B33796901416B9387F9FFB3F72701AC
:100AB40099E363FC340193D94900C147E3E637FF66
:100AC40099BF0569C1697D19D9B71305800D63887C
:100AD4006901130500026384790113051008CA85AE
:100AE400DD3B353D21DD4E99B3843441D9B7DA85F8
:100AF4002D45D533CA94E30099F205097D3BA30F34
:100B0400A9FED5BF9387F9FF93F7F70F6361FC0C38
:100B140083C71C0413073008631FF7043707080052
:100B2400636BEB04B3079B00B706100063F5D704AF
:100B3400334BEB0089476393F9068980D549E38CED
:100B440004ECDA850945413B11090327C9FF9147A4
:100B54002320E48003076480E34E07FE23033481EB
:100B6400FD17EDFBFD14110B81C49377FB0FE9FF17
:100B74007D3371F5E1B5B717004003C75704B707D4
:100B840008001377070219E3B78707007955E3785C
:100B9400FBEA33079B00E3FFE7F855B58547E3829B
:100BA400F9F2DA852D45053B9389F4FFE38504E6E4
:100BB400293393F7390091EB832604800327090036
:100BC40093074900E39AE6E43E89CE84F1BFB54732
:100BD4006396F9001305900BC93135BDB147130570
:100BE400B00AE38BF9FE99476391F904B70508004D
:100BF400B365BB002D45C53181448D4BA149753981
:100C040063967401832704802320F9008504E39804
:100C140034FF8327048013172B0163550700231225
:100C2400F900D5BB2322F900FDB39D476399F9026E
:100C340081451305B0044531BD4423200900232216
:100C44000900FD599D3993F77400CA9703C707003B
:100C5400FD14398D2380A700E39634FF6DBBA147B3
:100C64006392F9046D398144630D0B008D4793043D
:100C7400C0036308FB009304000563048B01930421
:100C840040041375C507E30895D819453931393936
:100C94000545213126850D3909453D314931E31C8E
:100CA40005D669BB91476399F90013056006F536CB
:100CB400F53E130590090DB7E38F09D4F154A9BB90
:100CC400971100209381C1841771002013014133CF
:100CD4001305400097F5FF1F938585321706002002
:100CE400130606FE63FAC5008322050023A05500FF
:100CF40011059105E3EAC5FE17450000130545CB30
:100D0400970500209385C5FB1706002013064600AF
:100D140063FAC5008322050023A05500110591053F
:100D2400E3EAC5FE17050020130585FE972500207C
:100D3400938545C26377B500232005001105E36D53
:100D4400B5FEFD42739002BC854273904280B72287
:100D540000009382028073A0023097F2FF1F9382F7
:100D6400222A93E232007390523097020000938259
:100D7400A23073901234730020303D432A8763738A
:100D8400C3029377F700BDEFADE5937606FF3D8A86
:100D9400BA960CC34CC30CC74CC74107E36BD7FED0
:100DA40011E28280B306C3408A0697020000969639
:100DB4006780A6002307B700A306B7002306B70081
:100DC400A305B7002305B700A304B7002304B700A5
:100DD400A303B7002303B700A302B7002302B7009D
:100DE400A301B7002301B700A300B7002300B70095
:100DF400828093F5F50F93968500D58D9396050122
:100E0400D58D61B793962700970200009696868247
:100E1400E78086FA9680C1171D8F3E96E374C3F867
:100E2400A5B717350000130525EA6F00B03341114B
:100E340022C406C617340000130484ED2285EF0093
:100E440070321305803EEF106056CDBF411122C4AD
:100E540006C617340000130424EC2285EF009030FA
:100E640013050032EF108054CDBF41110146814576
:100E7400173500001305C5EA06C622C426C2252676
:100E84009707002023A6A7E815CD85450565EF2023
:100E9400103189450565EF20F03AB7E700E03707E0
:100EA400020023A0E71097040020938464E617341B
:100EB40000001304A4E78840FD55292E2285EF0085
:100EC400702AD5BF2244B24092441735000013055E
:100ED400E5E641016F001029411106C622C4EF1056
:100EE4002019138441A7D148114893070020138780
:100EF40041878146170600001306A6F397350000C4
:100F0400938505DB2285EF10002A2285EF1000501F
:100F14001384C1CED1481148930700201387C1AE72
:100F24008146170600001306A6F297350000938544
:100F3400A5D82285EF1020272285EF10204D138499
:100F440041F6D148114893070020138741D68146C2
:100F5400170600001306A6F197350000938545D6C1
:100F64002285EF1040242285EF10404AEF10A01292
:100F7400B240224401454101828063420502930745
:100F8400803E3347F5023365F5023305F502130558
:100F9400753E3345F5023307F7023A9582807D5555
:100FA400828001458280014582800145828001451D
:100FB4008280411122C426C206C6174400001304CD
:100FC400E49D974400009384E49D63679400B240D9
:100FD40022449244410182801C4011048297F5B757
:100FE400411122C426C206C6174400001304849B80
:100FF400974400009384849B63679400B240224426
:101004009244410182801C4011048297F5B741113A
:1010140006C6F937B2404101C1B54111D14709476C
:1010240093060020014697050000938585FE173539
:1010340000001305E5D106C6EF10E020B2404101DF
:101044006F10C03C411106C697F0FF1FE780803A3D
:10105400EF209011EF00F017EF10A05BEF0030705D
:101064006D3FEF10A05B4120EF009072B24001454C
:1010740041018280411106C6F137B2400145410168
:101084008280011126CA06CE22CC4AC84EC6938459
:10109400818397F0FF1FE780E0359C402A89639C99
:1010A40097006244F240D2444249B249056117F3C1
:1010B400FF1F6700E3348040228597F0FF1FE7801D
:1010C400A01248489309C4FEEF00D0404E85EF00BB
:1010D400905F4A8597F0FF1FE78080325DBF411122
:1010E40006C64537FDBF411122C41384C1FD2285C4
:1010F400930800021D489307002013874105814689
:10110400170600001306E6FD973500009385C5C455
:1011140006C6EF10400922852244B24041016F10F7
:10112400E02E011122CC2A842E8532C62EC406CE8E
:10113400EF10E01C3246A24501CE85476307F60056
:10114400F240624401450561828008406315A400B1
:10115400D105228501A803C7550383471502637887
:10116400F700D10597F0FF1FE780E008D1BF0841E1
:10117400F1BF011126CAB2842E86894522CC06CE3F
:101184002A8436C6EF007043B24693074401231EF7
:1011940094001CCC5CC8A304D400F2406244D24442
:1011A400014505618280011122CC2E84AA8509455E
:1011B40006CE32C6EF00D04A11C932469307450124
:1011C4001CCD5CC9231E8500A304C500F240624403
:1011D40005618280011126CA06CEAA8422CC4AC89F
:1011E4002EC697F0FF1FE780E02083D7C40199CF74
:1011F400FD17239EF40097F0FF1FE7806020014550
:10120400F2406244D244424905618280B24799E780
:1012140097F0FF1FE780C01E7955DDB72A8997F044
:10122400FF1FE780C0092328050203C69400AA858E
:101234002A8413854401F535B247635CF0009304B6
:101244004404700081452685EF1060352685EF1033
:10125400E0274A8597F0FF1FE780801A97F0FF1F69
:10126400E78020FE085869BF011122CC26CA06CEA9
:101274002A8497F0FF1FE780E017AA84130544012E
:1012840097F0FF1FE780E0F705E54848054431156E
:10129400EF10C012268597F0FF1FE7806016014506
:1012A4000DC82AC697F0FF1FE780A0F9324515A0A4
:1012B4008357C40141677D176387E7008507231EB1
:1012C400F4000144C1BF268597F0FF1FE780401357
:1012D4007555F2406244D2440561828083C781809F
:1012E40085072384F180828083C78180FD1723844E
:1012F400F180828003C58180828093780804411143
:10130400173F0000130F0FC063860800173F00004B
:10131400130F0FB5937E080163870E001378E8FF5F
:101324009303000239A09378180093030003E38920
:1013340008FE93782800638F080663580602330674
:10134400C0409308D0020A8E8142A94F6396F607E3
:101354003373D6023356D6027A93034303008502CD
:10136400050EA30F6EFE7DF215A0137348009308BB
:10137400B0026317030093788800B338100196080D
:1013840079F2930600032300D1008542968663D345
:10139400F200BE8613781801158F63130804638561
:1013A40008006353E0007D172A863303E500130E1B
:1013B400000221A88148E9B71373F600118269BFBE
:1013C4006374B6002300C60105063308C340E3492D
:1013D40000FF3A866353070001467D173295118F4B
:1013E400638808006374B500230015017D170505A3
:1013F40063870E02AA96130800031DA86374B6003F
:101404002300760005063388C840E34900FF3A8686
:101414006353070001467D173295118FE1BF2A8679
:10142400B308E500CDB76374B500230005010505D5
:101434003386A640E3C9C2FEFD56FD126383D20083
:1014440099E7AA873306E5001308000205A063782C
:10145400B50033065100034606002300C500050508
:10146400E9BF63F4B700238007018507B306F6409C
:10147400E349D0FE6353070001473A954101828056
:10148400411122C406C62A84B53519C523A6818014
:10149400B24022444101828097F0FF1FE78020E29E
:1014A40075D500D9F5B70D47AA876376C70093773A
:1014B400350091C7AA873E966397C706828093F743
:1014C400F50F13978700D98F139707015D8FB30822
:1014D400C500AA87BD463388F84063EB06039357DB
:1014E4004600C156B386D7029207AA970D4836968E
:1014F4003383C700BE86B308D3406362180313570F
:101504002600F156B306D7020A07BA97369665B78E
:1015140098C3D8C398C7C10723AEE7FE6DBF910631
:1015240023AEE6FEC9BF8507A38FB7FE71B763F389
:10153400A504B386C500637FD5029345F6FF8147B2
:10154400FD176393F50082803387F60003080700D4
:101554003387C7002A9723000701DDB73387F500D7
:10156400830607003307F50085072300D700E31738
:10157400F6FE82808147E5BF0DC6AA8785050387ED
:10158400F5FF85079306F6FFA38FE7FE09EB3E966A
:1015940085076393C7008280A38F07FED5BF368675
:1015A400F1FE828001476314E600814705A0B3077A
:1015B400E50083860700B387E50083C70700B38788
:1015C400F640E207E18799E30507F1FE3E85828054
:1015D400AA870387070001E73385A7408280850730
:1015E400CDBF79715EC6AE8B56CA5AC806D622D410
:1015F40026D24AD04ECE52CC62C4B30A75012A8B8D
:10160400B68563F5AA00934BF5FFFD5AC1645A856C
:101614001309B00293090002130A3002FD1439A819
:10162400130750026383E704637455012300F50034
:10163400930715003284130614003E8583070600C1
:10164400E5F363860B006378553123000500B2503F
:1016540022543305654192540259F249624AD24AEE
:10166400424BB24B224C4561828001481307D002A1
:101674009306000331A0639E270113684800228665
:101684008307160013041600E397E7FE13680801A6
:10169400FDB76395370113688800D5B76395470193
:1016A40013680802E9BF6395D70013681800C1BF27
:1016B400138707FDA54663E6E6040147A546A94846
:1016C40039A03307170305043E97130707FD830763
:1016D4000400138607FDE3F6C6FE03060400930622
:1016E400E002FD57631FD6048307140025469306C2
:1016F4001400938807FD6367160B8147A548294E9C
:101704003DA09306A0027D57E399D7FC98411304AA
:1017140026009105E35307FC3307E04013680801F2
:101724006DBFB387C7038506B297938707FD03860A
:101734000600130306FDE3F668FE63D30700814742
:1017440036848306040013068006814813F3B6FF2B
:101754006315C30093F8F60F05040306040093060B
:1017640090066305D60663C7C6069306800563091B
:10177400D61C63C5C60493075002630CF61A63763D
:101784005501930750022300F50003070400930753
:101794001500630B071A63F45701A300E5009307D0
:1017A400250051BD1306A0026397C7009C41930610
:1017B4002400910559B73684814761B793063006F2
:1017C4006301D60893064006E31BD6FA1368280083
:1017D400A94699A0930630076305D60C63C5C602D3
:1017E4009306F0066304D61693060007E319D6F8A9
:1017F400FD566315D700136818002147138C450064
:10180400C146904115A893065007E303D6FC130381
:101814008007C146E31566F61306C006138C45001F
:10182400E381C8FE13068006E39DC8FC90419375CE
:101834002800639F0510658ED685C134AA87E2858A
:10184400DDBB1378080163160802BA879306000209
:1018540031A0637455012300D5000505FD17E34A43
:10186400F0FE9307F7FF6343E00005473387E74043
:10187400050793864500637555019C412300F500D7
:10188400930715002A97930500023306F740634433
:10189400C000B6854DB363F457012380B7008507B4
:1018A400EDB790419388450009E61726000013061A
:1018B400E66481466387E600B305D60083850500A8
:1018C40091ED6355F00063D3D700BE861378080109
:1018D40063110802BA879305000209A88506D9BFD7
:1018E400637455012300B5000505BA877D17E3C964
:1018F400F6FE8147639DD700B307D5003E97930555
:1019040000023306F74063C0C602C6852DB3B30593
:10191400F50063F855013308F60003080800238036
:1019240005018507C1BF63F457012380B70085070C
:10193400C9BF637455012300C50093071500E5B9B9
:1019440013680804C146C9BD7D14F5B1A146E9B5C3
:1019540042064186D5B5A38F0AFED5B99387018186
:101964008843828039712ED232D436D62A865410D6
:101974009305F007138541253EDA36C606CE22CC00
:1019840026CA3AD842DC46DEA93993870181AA8661
:10199400884311E913854125EF10B070F240624489
:1019A400D244216182808354A5013E8493E70404D8
:1019B400231DF5009307F00763F4D7009306F0079F
:1019C400138641258145EF10B0631C40239D970089
:1019D400F1B74111172500001305C54906C659374B
:1019E400172500001305C549B53F17250000130549
:1019F400254C172700001307E74A954605468D45F1
:101A04009537B240172500001305854C410199BF55
:101A140039C91377F50F972600009386663411C7EA
:101A2400BA9603C5060005058280C167938707F04F
:101A3400E98F89CB21851377F50F36970345070086
:101A440025058280B707FF00E98F89CB418593770D
:101A5400F50FB69703C50700450582806181369569
:101A640003450500650582809387818198435C4125
:101A7400BA976308F50283D6270085E693864181E9
:101A840094426380F6029386C18194426394F60083
:101A940023AEA180D44354C1DC43B306E540BA97D6
:101AA40094C71445B307D7006301F50203D6270092
:101AB40009EE1386C18110426314A60023AEF1809F
:101AC4005041D0C35C413E9714C7828093874182C2
:101AD4008C434111172500001305054406C65935EA
:101AE400938781828C4317250000130525449D3D6F
:101AF40093870182B2408C431725000013054544A7
:101B040041018DB513F7C5FFE1462E8663F5E60660
:101B140093073500F19B930687FE63EEF6041D8F51
:101B2400930687FE23A2D18223ACF18041118966FA
:101B340006C65117938606EA94C3D8C323A40700A4
:101B4400BA9723AAF180C966938606EA94C3D8C3D8
:101B540098C781460546972500009385E547138578
:101B6400412DEFF00FE1938781819C43B24023AE76
:101B7400F18041018280AA8517250000130545469E
:101B8400D5B363040512938741824111984322C45B
:101B94001304350026C206C67198BE840145636EDF
:101BA400870CB1476373F4003144FD551385412D0F
:101BB400EFF04FE29387C1819843938781818C43EF
:101BC4008840B306B740B307854063E8F600138541
:101BD400412DEFF06FE901454DA0B384D50003D644
:101BE400240083A8440061E23386D840130846FFEA
:101BF400636B880A1383018293878182032E030017
:101C0400130384019C43636F68061306C40036966D
:101C140009633388C500130303EA2322180123242C
:101C2400D800232068008546D0C02391D4008326A1
:101C3400480031056384A600AE9690C6B1073E9471
:101C440023A4818263748E0023A081828967938791
:101C540007EA2390F400631C97009387418194431F
:101C640081470356270015EA99C323AEE180138503
:101C7400412DEFF06FDF1385C400B240224492443B
:101C8400410182808546B2972391D40023A4F18236
:101C9400E37EFEFA23A0F18255BFE307D7FC584345
:101CA40085472E977DBFC6860DB7014582803306D2
:101CB400B502011122CC06CE328532C6D9352A842A
:101CC40009C532468145EFF00FFE2285F240624499
:101CD4000561828055CD93878181984341114AC023
:101CE40006C622C426C23E89636EE50893874181F5
:101CF4009C436379F5082A84930445FFFD551385B5
:101D0400412DEFF02FCD835764FF81CB035744FF60
:101D14008967938707EA6301F70217250000130513
:101D2400E5268931835644FF035664FFA6851725AB
:101D34000000130565273D318967938707EA231A55
:101D4400F4FE9387C1819C43231B04FE63F4F400D7
:101D540023AE918093878182032784FF9C43268549
:101D6400998F032709003387E440BA9723A4F182AB
:101D7400E5392244B240924402491385412D410180
:101D84006FF08FCEB24022449244024941018280D6
:101D9400828097F6FF1F9386A6F281473687154601
:101DA4008C426396A50092073305F700828085076D
:101DB400C106E397C7FE01458280011122CC2A8423
:101DC4002E8506CE26CA4AC84EC652C4AE89328A69
:101DD400C9372A89712C83244900930749006394E5
:101DE400F404552C93E909F823043401D2852146DF
:101DF4002285EFF06FF897E0FF1FE780A05F0327CD
:101E040049009307C400F2405CC358C42322F9007C
:101E140004C86244D2444249B249224A056117E3E4
:101E2400FF1F6700E35D84405DBF411106C622C405
:101E340026C2230405002A8497E0FF1FE780805B05
:101E4400AA841305C40097E0FF1FE780403C2244A6
:101E5400B24026859244410117E3FF1F6700435AAD
:101E6400011106CE22CC26CA4AC84EC62E89AA899A
:101E74000D37AA84484531332A8415CDD044814591
:101E84009104EFF04FE22146CA8523043401A304F0
:101E940004002285EFF04FEE97E0FF1FE7808055A6
:101EA40098409307C4005CC358C49CC004C897E01E
:101EB400FF1FE780E0542285F2406244D244424945
:101EC400B24905618280411106C622C426C2230498
:101ED40005002A8497E0FF1FE780C051AA841305F8
:101EE400C40097E0FF1FE7808032268597E0FF1F3C
:101EF400E780005122852244B24092444101D9BB7B
:101F0400030585007D81828001114EC6AA892E8534
:101F140006CE22CC26CA4AC8AD3D638C0900AA84E9
:101F240001441DC1B122910403A904006315990061
:101F34009D22014411A8130449FF2146CE85228520
:101F4400EFF04FE611E9812A2285F2406244D2443F
:101F54004249B2490561828003290900C1BF239A1D
:101F640001829387412F13874133DCC39CC3A107AC
:101F7400E39DE7FE9D472386F18223A8018223A0E7
:101F840001849387818323AEF18223ACF182828022
:101F9400938701848843411106C69D3C7D159317A0
:101FA40035001385412F3E9508419307C5FE210551
:101FB40023A8F18297E0FF1FE780004501A04111AB
:101FC40006C622C426C22A8497E0FF1FE780804207
:101FD40083474403AA841385412FC19B93E71700C9
:101FE400230AF40283475403930544018E073E9564
:101FF40097E0FF1FE7808022138701841C5C144351
:102004002244B240D58F268592441CC3410117E374
:10201400FF1F6700E33E411106C622C426C22A847C
:1020240097E0FF1FE780003DAA841305440197E071
:10203400FF1FE780601F834754031385412F8E07DA
:102044003E9597E0FF1FE780001F11C91C5C1387B2
:102054000184184393C7F7FFF98F23A0F184224426
:10206400B24026859244410117E3FF1F67004339BC
:10207400411106C697E0FF1FE780C03713874183ED
:1020840083570700B24085072310F700410117E387
:10209400FF1F6700E336411106C697E0FF1FE78084
:1020A400603583D74183FD17C207C187239AF18224
:1020B4006342F002239A018297E0FF1FE7804034D5
:1020C400938701839C4389CFB240410117E3FF1FEB
:1020D40067002317B240410117E3FF1F6700433233
:1020E400B24041018280411122C426C22A8406C61C
:1020F40097E0FF1FE78000303C58AA8499C32285EB
:1021040082972244B24026859244410117E3FF1F7F
:102114006700032F41119387018322C4804306C6BD
:1021240026C297E0FF1FE780E02CAA842285653F42
:102134002285D5359147230AF40213054404812EE0
:1021440022857D3B85476311F5022285F93997E0A5
:10215400FF1FE780000F2244B240268592444101CC
:1021640017E3FF1F6700C3299387818394431307F1
:102174004401D8C254C81CCC23ACE182C9BF41116C
:1021840006C622C4F9571CD92A84510597E0FF1FBB
:10219400E7800012228525352244B240410117E32D
:1021A400FF1F6700030A797126D2B2842E86854503
:1021B40006D622D442C82A8446C636CE3ACC3ECA73
:1021C400ED3E6247D247F2461306440118D410CCC0
:1021D40050C804D054D05CD43E863A85930530026E
:1021E400EFF06FAC5C5410544C500850F1173E960D
:1021F40097060000938646F21D214248B24848CC17
:10220400230B040313054404A30A0403232C04022C
:10221400232E14032320140523280402230A040272
:1022240023280406232A0406A286A285814701479F
:10223400170600001306E6F4112CB25022549254EF
:10224400014545618280011156C2AE8AAA850545C1
:1022540022CC26CA4AC84EC652C406CE328AB68496
:10226400BA893E89F53E2A8401C92685EFF07F911B
:1022740011ED2285893901442285F2406244D24419
:102284004249B249224A924A0561828013074401B5
:1022940018CC58C82686232054032322440308D488
:1022A40044D493053002EFF00FA05C5410544C500A
:1022B4000850F1173E96970600009386E6E58526BA
:1022C40048CC230B3403A30A3403232C0402232E07
:1022D40024032320240523280402230A0402232898
:1022E4000406232A040681470147A2861706000034
:1022F400130626E9A28513054404892AB5BF83473A
:1023040045030547BD8B6393E704411106C622C408
:1023140026C22A8497E0FF1FE780C00DAA84228585
:10232400DD398347440313054404C19B93E7270025
:10233400230AF4021D24268597E0FF1FE780400C42
:10234400B240224492440145410182807D558280FD
:10235400011106CE22CC26CA4AC82AC697E0FF1F1E
:10236400E78040099387018380432A892285413F7E
:102374009304440470008145268515242685B922DA
:102384004A8597E0FF1FE780A00797E0FF1FE780DB
:1023940040EB1858F9576314F70023280402F2405D
:1023A4006244D244424901450561828055B74111D6
:1023B40006C6EFE09FBCB240410159BF83474503C5
:1023C4000947BD8B6392E704411106C622C426C2A5
:1023D4002A8497E0FF1FE780E001AA8413054401E3
:1023E40097E0FF1FE780C0EC13054404BD22268557
:1023F40097E0FF1FE780C0002285D136B240224417
:1024040092440145410182807D558280411106C676
:102414008346650305473317D70018DD0947A30A28
:10242400D502230AE502593F97E0FF1FE78020E920
:1024340009C597E0FF1FE780C0E0B24001454101B4
:102444008280510517E3FF1F670063ED011126CA5F
:10245400B2842E86A94522CC06CE2A8436C63AC436
:102464003EC2EFF09F959247B2462247F99BA304E0
:10247400F4009307440144CC14D02324040258D01C
:102484001CCC5CC8F2406244D24405618280411194
:1024940006C622C426C22A8497E0FF1FE78080F57F
:1024A400AA842285793F834794002685F99BA30457
:1024B400F40097E0FF1FE780A0F42285EFF0FF9679
:1024C400B24022449244014541018280411106C632
:1024D40022C426C22A8497E0FF1FE780A0F1AA84C1
:1024E4002285853783479400F99BA304F40097E081
:1024F400FF1FE78020CA5C50370600801346E6FFC2
:102504003E9593878184CC4308D49843639FF50216
:102514009386418494422685850623A2D18493061A
:10252400440154C358C894C31CCC8347940093E714
:102534001700A304F40097E0FF1FE78060ECB240AB
:1025440022449244014541018280544B6305D500E5
:10255400898EE37FD6FABA874DBF83479500858B72
:102564008DCF411106C622C426C22A8497E0FF1FDC
:10257400E78040E8AA842285E935834794002685CC
:10258400F99BA304F40097E0FF1FE78060E7B240E3
:10259400224492440145410182807D55828001118B
:1025A40022CC2EC606CE2A8432C497E0FF1FE780D1
:1025B40060E4B245914763E1B702172700001307AF
:1025C400E7A58A05BA959C412246BA9782875C5052
:1025D4001CC219A01C425CD097E0FF1FE78040E2B8
:1025E400F240624401450561828083479400F59B73
:1025F400A304F400D5B78347940093E72700CDBF25
:1026040083479400858B99C38547D9B72320060057
:10261400E1B793878184DCC39CC3828082801106E6
:10262400719A2A8837C7ADDE1305C6F8AA8713073F
:10263400F7EE6319F6002328D6F82324B6FA2326E6
:1026440006F9828098C39107EDB741111725000060
:10265400130585A306C6EFF0EFB0B2400145410172
:102664008280011122CC004126CA4AC84EC606CE39
:10267400AA8417290000130929F5972900009389D2
:10268400E9F463199400F2406244D2444249B249E5
:10269400056182809305C4FE4A85EFF0AFAC1C400F
:1026A400638597004E85EFF0EFAB0040D9BF411131
:1026B40006C6EFF00FB2B24001454101828001111C
:1026C400172500001305859D22CC4AC84EC652C466
:1026D40006CE26CAEFF00FA99387C18580431389DC
:1026E4000186972900009389A99C172A0000130AE0
:1026F4006A9C83270900636BF400F2406244D2446D
:102704004249B249224A0145056182800440094692
:10271400CE852685EF10805411C55040A68552857C
:10272400EFF04FA43104F1B7DC4523A80500C1CB79
:1027340083C78500011122CC26CA06CE4AC84EC6DC
:102744002A84AE8401459DCB83A90500014919E083
:102754004E84054997E0FF1FE780C0C9AA86631627
:1027640009028347C4FF03C7840093F7F7F7638E16
:10277400E70097E0FF1FE780A0C80145F2406244EC
:10278400D2444249B24905618280D0408147004029
:102794003E89638489021397270003A9C4003297F2
:1027A40000C38507E39527FF368597E0FF1FE78081
:1027B40020C5228523A82401D1B70144F5B70145DA
:1027C4008280411122C426C206C6254497240000F3
:1027D400938444DF7D1411E4B240224492444101C5
:1027E40082802685EFF00F98F5B71971154586DEBE
:1027F400CED6D2D4D6D2DAD0DECEA2DCA6DACAD8ED
:10280400EFF02FD91105954717260000130686927D
:10281400A1452ACE2302F1021725000013050592D3
:10282400A147130A01033ED452D002D6EFF08F938E
:10283400493F172500001305A592EFF0AF92814997
:10284400972A0000938A0A95172B0000130B0B9309
:10285400972B0000938B4B844E856C08F135AA8925
:102864000149B2576340F902E39809FEF6506654F1
:10287400D6544659B659265A965A065BF64B014524
:102884000961828093172900D297844397E0FF1F40
:10289400E78040B60347410283C7C4FF93F7F7F7C5
:1028A4006388E70097E0FF1FE78080B5050955BFFF
:1028B40097E0FF1FE780C0B413848400938644FF2D
:1028C400228536C697E0FF1FE780E0D203D7640174
:1028D40083D74401B2462286014815E11042631DA4
:1028E400C4002146A1455A85EFF0CF872285953B48
:1028F4005E85EFF02F875DBF0508CDB70508104250
:10290400E31EC4FE2146A1455685EFF0AF8579BF8D
:102914005971254586D6CAD0CECED2CCD6CADAC80D
:10292400DEC6A2D4A6D2EFF0CFC61105A54717166E
:1029340000001306A679A1452AC6230AF10017153B
:10294400000013052579A147930901023ECC4EC826
:1029540002CEEFF02F81B535171500001305057A67
:10296400EFF04F800149554A971A0000938A8A75FF
:10297400171B0000130BCB7A971B0000938B4B6B38
:102984004A856C0055332A890144F2476340F402B6
:10299400E31809FEB650265496540659F649664A79
:1029A400D64A464BB64B0145656182809317240095
:1029B400CE97844397E0FF1FE780C0A303474101FC
:1029C40083C7C4FF93F7F7F76388E70097E0FF1F17
:1029D400E78000A3050455BF97E0FF1FE78040A2EE
:1029E4009C44938644FF56876365FA008A07DE9702
:1029F400984383C704012146A1455A85EFE09FF619
:102A0400D1BF1D71294586CECAC8CEC6D2C4D6C28E
:102A1400DAC0A2CCA6CAEFF0CFB71105A947172692
:102A240000001306668EA1452AC6230AF100172565
:102A340000001305E58DA147930901023ECC4EC861
:102A440002CEEFE03FF2B53B172500001305C58E1B
:102A5400EFE05FF10149172A0000130A2A90972A30
:102A64000000938AEA91172B0000130BAB904A8560
:102A74006C005D392A898144F24763CAF402E31881
:102A840009FE97D0FF1FE780E070AA851725000094
:102A940013050590EFE01FEDF6406644D644464921
:102AA400B649264A964A064B01452561828093978A
:102AB4002400CE97804397E0FF1FE780A09303474D
:102AC40041018347C4FF93F7F7F76388E70097E072
:102AD400FF1FE780E092850445B797E0FF1FE7807A
:102AE40020925C4C184C5285930644FF2146A14524
:102AF400EFE05FE78347D4FF5A85858B91E35685E2
:102B0400EFE05FE6C9BF1171054586DFCAD9CED7AC
:102B1400D2D5D6D3DAD1DECFA2DDA6DBE2CDE6CBA9
:102B2400EAC9EEC7EFF0EFA61105854717160000B6
:102B34001306C66DA1452ACA230EF100171500001D
:102B44001305456DA147930981023ED04ECC02D2B4
:102B5400EFE05FE1BD31171500001305E56FEFE00D
:102B64007FE00149171A0000130A0A73854A130B00
:102B74003002971B0000938BAB764A854C086D3668
:102B84002A898144130C4006894C114D925763C421
:102B9400F402E31409FEFE506E54DE544E59BE593D
:102BA4002E5A9E5A0E5BFE4B6E4CDE4C4E4DBE4D65
:102BB40001451161828093972400CE97804397E06A
:102BC400FF1FE78020830347C1018347C4FFAA8D09
:102BD40093F7F7F76388E70097E0FF1FE7804082E9
:102BE40085046DB7930644FFB68513068007A800D5
:102BF40036C6EF0010776E8597E0FF1FE7804080B0
:102C040003479402B24652852146A145EFE09FD581
:102C140083478402171500001305C568BD8B638ABA
:102C24005703171500001305A56863849703171548
:102C340000001305A56891CF171500001305C5689A
:102C44006389A7010D476398E70017150000130572
:102C54006568EFE03FD14C4CAE8683C706006382C3
:102C64006703105008485C50B295B386D540B386CC
:102C740086035858898D5E85B3D6C602EFE09FCE91
:102C840085B78506D9BF1971094586DECED6D2D45B
:102C9400D6D2DAD0DECEA2DCA6DACAD8EFF06F8FB5
:102CA400110589471716000013064650A1452ACE80
:102CB4002302F1021715000013050550A147130A5A
:102CC40001033ED452D002D6EFE0DFC9EFF07FAF6C
:102CD4001715000013050550EFE0DFC88149971A66
:102CE4000000938AAA51171B0000130B2B50971B4B
:102CF4000000938B6B3A4E856C08EFF0FFA2AA8913
:102D04008144B25763C0F402E39709FEF650665457
:102D1400D6544659B659265A965A065BF64B01457F
:102D24000961828093972400D29703A9070097D062
:102D3400FF1FE780206C034741028347C9FF93F7D5
:102D4400F7F76388E70097D0FF1FE780606B85047F
:102D54004DBF97D0FF1FE780A06A13048900930634
:102D640049FF228536C697E0FF1FE780C0880357D6
:102D74000901B246228681471DE11042631EC40048
:102D84002146A1455A85EFE0FFBD2285EFF07F8DF6
:102D94005E85EFE03FBD65BF8507C5B78507104277
:102DA400E31EC4FE2146A1455685EFE0BFBB45B7EF
:102DB4000111172500001305A59822CC4AC84EC658
:102DC40052C406CE26CAEFE0FFB99387C18580437B
:102DD400138901869729000093894998172A0000CE
:102DE400130A4A98832709006361F4021715000047
:102DF4001305852AEFE01FB7F2406244D2444249EA
:102E0400B249224A01450561828004401946CE85B3
:102E14002685EF00B06419E550409385640052851F
:102E2400EFE05FB431047DBF411106C6E939B24019
:102E3400014541018280411106C6EFE03FC9B2401D
:102E440001454101828005458280397122DC26DA00
:102E540006DE4AD84ED652D456D25AD0AA842E84EC
:102E64009306000225476307041A838704006386D8
:102E7400D70A6384E70A014913070002A546B3870A
:102E8400240183870700638FE708638DD7086319DC
:102E940024099387C18583A907009387018683AAA0
:102EA4000700172B0000130B6B8B63FF590703AA52
:102EB40009001946DA855285EF00505A59E54A86C9
:102EC400A68513056A00EF00705941E14A9A830709
:102ED4006A00A5EF83A98900638809041306000228
:102EE40081450A85EFD07FE90A898A86A68701474A
:102EF400014513080002A548214313062002130EBE
:102F0400C005838507006384050163971505631075
:102F1400E404A1476304F50475A085047D14A1B7F6
:102F24000509B1BFE31709F6A687038707001377DE
:102F3400F7FD79EF171500001305057F23800700BF
:102F4400A685EFE03FA27D55B1A0B109B9BF2380AA
:102F540007000507850775B7631865041715000092
:102F64001305457AEFE01FA0001097140000938426
:102F7400647B8325090026851109EFE0BF9EE31ACF
:102F840089FE1715000013052511EFE0BF9D2145AB
:102F94008A858299F2506254D2544259B259225AC3
:102FA400925A025B21618280637E870005056392E9
:102FB400C504850705079CC2838507006381C50294
:102FC4006364870071F58DB7838E17006396C5011E
:102FD4006394CE008507050785070507F1BFE373F2
:102FE40087FE23800700050785079106E36B87F0BA
:102FF400D1BF9CC2838507006389050163871501DE
:10300400E302E4FC85070507F5B7E36087FE5DBFCF
:10301400850721BF0145BDBF8307050081E78145C1
:10302400014579B379719387C18552CC03AA07000E
:1030340026D24AD04ECE56CA5AC85EC606D622D426
:10304400AA8401498149938A0186171B0000130B46
:10305400EB70971B0000938B6B7183A70A0063636B
:10306400FA02630209082254B250624AD24A424B1D
:10307400B24B4E86CA85F24902592685925445615F
:103084006FE08FCF03240A001946DA852285EF000A
:10309400F03C21E12685EF00503B19042A86A285E5
:1030A4002685EF00B03B15E5639709002285EF0004
:1030B400D039AA892289CA8722870386070001EEAC
:1030C400B387274163D33701BE89A2855E85EFE0CC
:1030D4007F89310A59B783060700FDD2E312D6FE71
:1030E40085070507D9BFB250225492540259F249B8
:1030F400624AD24A424BB24B456182809387018730
:103104008843411106C6EFE02F96B24001454101C4
:103114008280971700009387E77923AEF18497277D
:1031240000009387678723A0F18697270000938781
:10313400A786411123A2F186930500089727000072
:1031440093878785054523A4F18606C622C426C233
:10315400EFE0FFB523A8A18611ED171500001305B4
:10316400656CEFE03F807D542285B2402244924456
:1031740041018280A94719479306004001469705FB
:10318400000093850513171500001305256BEFF058
:103194008F8B13840187AA840840814601469715C2
:1031A40000009385256AEFD0DFFC18400144834773
:1031B400470293E727002302F702DDD42685EFF0C8
:1031C400EFA45DB7938701879C4383C74702898B2C
:1031D40091E7238A01321385413382809387C18624
:1031E4008C43411106C681CD130600081385413373
:1031F400EF009029B2401385413341018280A1310F
:10320400971500009385C55E09E597150000938521
:10321400A55E13854133EF00302297150000938596
:10322400255E13854133EF00301FE9B7011106CE47
:1032340022CC26CA2AC6C121B24519E96244F24009
:10324400D244171500001305E55B05616FE08FF1AB
:10325400138401871C40AA84FC5F6385A70493053B
:103264003014692921E11C40E85F11C51D231C406D
:103274008145E85F5D2B0040814513060005130579
:103284005402EFD09FAF64DC231B0406231C040606
:103294006244F2402685D24497050000938545E6B2
:1032A400056161A3F2406244D244056182803971B0
:1032B40022DC138401871C4006DE26DA03C747029A
:1032C4004AD84ED652D456D25AD05ECE62CC136768
:1032D40017002382E702FC5F89E7EFE02FE811C1C2
:1032E400B137CD35EFE00FE86D49A549130AF00772
:1032F400971A0000938A0A57171B0000130B0B56EA
:1033040097140000938484541C40A3070100FC5FBD
:1033140081EBF92BAA850DA00840FD55EFD09FEB5A
:103324001C4085461306F100E85FFD556D21854775
:10333400E314F5FE8305F100E3C805FC1C400547D2
:10334400638B2501945305476390E6021307B00588
:103354006395E500094798D345BF23A00702CDD55F
:103364006395350D014CBDA00946E39AC6FE23A022
:1033740007029386F5FBE379D7F813074004639FAC
:10338400E50083D78707C9D32685EFE0AFDD184072
:1033940083578707FD17231CF706BDB713073004AF
:1033A400E39FE5FA03D5870703D76707E37EE5F4D0
:1033B4003E95830555021715000013056549EFE096
:1033C4006FDA1840835787078507F1B72685EFE042
:1033D4006FD9050C832B040083D78B07E348FCFECD
:1033E40017150000130545CBEFE0CFD7EFF0BFA5CD
:1033F4008547938B5B026314F5005E853139D933BD
:103404005E86AA85171500001305C544EFE08FD525
:10341400832B040013855B02EF00300342054181D6
:10342400239BAB06239CAB06C5B5638545012147A9
:103434006392E50803D78707E30807EC03D6670719
:103444007D1742077D16420641824183239BC706AE
:10345400239CE7066376C7049305670213055702A6
:10346400198EBE953E95EFE08F8C1C405A8503D78C
:1034740067073E97A302070283D587079385550202
:10348400BE95EFE02FCE1C4083DB87071C4083D71B
:103494006707E3CB77E72685EFE0CFCC850BFDB755
:1034A4005685EFE02FCC1C4003D76707BA97A38259
:1034B400070299BD35476385E5002947639AE5040A
:1034C400EFF07F9885476314F5021C4083C74702D9
:1034D400858B99C717150000130505BCEFE08FC84D
:1034E40008408355650713055502EFF01F96D93937
:1034F400EFE04FC7832B04001306000581451385B5
:103504005B02EFD09F87239B0B06239C0B06EDBB2E
:1035140083D667071307F0046374D700239B070659
:1035240003D6870703D76707939B850193DB8B41FA
:103534006373E6089305560213056602BE953306C7
:10354400C7403E95EFD0BFFE0C4083D78507338735
:10355400F500A302770303C74502058B11CB9387BC
:103564005702BE951715000013050506EFE08FBF3F
:103574001C4083DB87071C4083D7670763C8FB02B3
:103584001C4003D7670783D68707050742078506CC
:103594004183239CD706239BE7069306F004E3F5B7
:1035A400E6D6239B0706239C0706B9BB2685EFE0D6
:1035B4006FBB850BC9B73E97A302770383C7470246
:1035C400858BDDDF1715000013058528EFE08FB923
:1035D40045BF719A232205000CC12314C5008280C3
:1035E400544113970601458313D61601630BC70094
:1035F400B307E6406360C70283178500B297998FCB
:1036040011A813D70601058B858A81476384E600D8
:10361400831785003E858280011122CC06CE2A8440
:103624002EC67D3F83178400638AA7045C40B2459D
:1036340013D717011C40BA972380B7005C40831648
:10364400840013D71701FD166314D70213D707019B
:10365400058BC17613471700FD164207F58FD98FE6
:10366400BE07BD835CC00545F240624405618280AB
:103674000507BE074607BD83D98FEDB70145EDB7F2
:10368400011122CC06CE2A842EC6993F31C558405A
:10369400A1679386F7FF05831C40758F420741831A
:1036A4003E9783470700B2452380F5005840031630
:1036B400840093571700F58FC207C1837D16639169
:1036C400C7029377170093C71700799B5D8FC17763
:1036D40085077D8F58C00545F240624405618280AC
:1036E4008507F58FC207C176C18385068607758F66
:1036F400D98F5CC0CDB7A5456FE01F818357850185
:10370400011122CC06CE26CAC18B2A8485EF1C5512
:1037140085C72EC68297AA84B24519CD2A86A2856A
:103724001715000013054514EFE0CFA3F2406244DF
:103734002685D244056182808357840193E707017B
:10374400231CF40083578401A18B91C78357A401E0
:10375400E554A18BE1FF5C548DC322858297AA8432
:103764000DE58357A40193E78700231DF4008347E5
:10377400C4018507230EF40055BF85679387F7F0CE
:10378400FD8D231DB4008144E9BFE957E310F5FA28
:10379400C9BF8347C5018DCF4111FD1722C406C699
:1037A40093F7F70F230EF5002A84014789EF1C597C
:1037B40089E70147231D040039A082972A8775D918
:1037C400E957E309F5FEB24022443A85410182807B
:1037D4007D573A858280411106C60347C50101EB36
:1037E4007D55EFD0FFC9B2400145410182800323DA
:1037F400450363050300B240410102836955D5B70F
:10380400411106C60347C50101EB7D55EFD05FC7E3
:10381400B24001454101828003238503630503000F
:10382400B240410102836955D5B70CD1014582806C
:103834004111130600089385813B1385814306C615
:10384400493B371700408327870A85451305001035
:1038540093E707202324F70A99228D4513050020B6
:103864003D2A7165130505204524B73700401D47DF
:103874002381E7400D47A381E74013070004A38099
:10388400E74005472387E740054595457524B24041
:10389400B7E700E03707000823A0E710014541011E
:1038A4008280411122C406C62A84EFD07FD2A28727
:1038B4002295294637370040A146B5456396A700AF
:1038C400B240224441018280038807006318C80083
:1038D4000348B740E38E06FF2304B7400348B740CC
:1038E400E38E06FF03C80700850723040741F9B7E1
:1038F40001119305F1001385814306CE513311C59F
:103904000305F100F240056182802945EFE03FAAFA
:103914007D55CDBFB7E700E041572386E7402387B5
:10392400E740056723A0E710116723A0E710B7F766
:1039340000E023A0070023A20700814694C70147A3
:10394400D8C71306F5FF90CB8146D4CB3D4798C327
:103954000145828017E5FF1F1305C5FF828017F517
:10396400FF1F130525FF828041111305800406C63D
:1039740022C497D0FF1FE78080CFB1229307803EF7
:103984003355F502413FEFD0CFE2E9372A84C13FF6
:10399400AA8522852244B24041016FE0AF96914747
:1039A40063EEB70217170000130787EF8A05BA956D
:1039B4009C41BA978287B717004003A7470B13456A
:1039C400F5FF698F23AAE70A03A7070B698F23A8CA
:1039D400E70A03A7070A798D23A0A70A8280B717ED
:1039E400004083A6470B1347F5FFF98E23AAD70A95
:1039F40083A6070B558D23A8A70A83A6070A758FEC
:103A040023A0E70A8280B717004003A7470B498F1A
:103A140023AAE70A03A7070B1345F5FF45BFB7170A
:103A2400004083A6470B1347F5FF758F23AAE70AC7
:103A340003A7070A598D4DB7B717004003A7470BD3
:103A4400498FEDB7931705010547C1836382E504E8
:103A54008DC10947638DE5040D476380E50637177B
:103A64000040231EF70883560709D58F2318F7084B
:103A74008280371700400356470993C6F7FFF18E3B
:103A8400231AD7088326C70A558D2326A70AC1BF40
:103A9400371700400356470993C6F7FFF18E231AE0
:103AA400D7088326870A558D2324A70A4DBF3717C5
:103AB400004083564709DD8EE1B73717004083562F
:103AC4004709DD8EE9BFB717004003D587004205DB
:103AD40041819377050491EB9377F5013755E8011C
:103AE400130505803345F50282809377050C13078F
:103AF40000046397E7009377F50137459C1CCDB725
:103B04002165130505D08280411122C406C62A848A
:103B14005D3F2947B307E502B2408D83B3D78702DF
:103B240022449507B3D7E70237370040C207C18361
:103B34002316F74041018280B737004003C717407E
:103B440019C9D98DA380B74003C7074013678700FD
:103B54002380E740828093C5F5FFF98DA380B740A9
:103B64008280B3C7A5008D8B3307C50081E78D47DD
:103B740063EEC700AA876370E50A83C6050085075C
:103B84008505A38FD7FEE3EAE7FE828093763500AE
:103B9400AA8791CA83C6050085078505A38FD7FE2A
:103BA40093F63700FDB79376C7FF138606FE63F0DE
:103BB400C70683A3050083A2450083AF850003AF36
:103BC400C50083AE050103AE450103A3850183A8A7
:103BD400C5019385450223A0770003A8C5FF23A24E
:103BE400570023A4F70123A6E70123A8D70123AA9A
:103BF400C70123AC670023AE17019387470223AEA6
:103C040007FF75B790419107910523AEC7FEE3EB1B
:103C1400D7FEE3E4E7F68280AA8703C7070093860A
:103C2400170009EB850503C7F5FF8507A38FE7FE9A
:103C340075FB8280B687D5B7AA8703C705008507B9
:103C44008505A38FE7FE75FB8280AA87850703C7D6
:103C5400F7FF6DFF3385A7407D15828005C67D166D
:103C64000147B307E500B386E50083C7070083C6B1
:103C740006006396D7006304C7000507FDF3338588
:103C8400D740828001458280AA8709CA850503C777
:103C9400F5FF85077D16A38FE7FE65FB3E966393CC
:103CA400C70082808507A38F07FED5BF7461736B3D
:103CB400310000007461736B320000007461736B37
:103CC400330000007468697320697320612074658F
:103CD400737420666F72206D73682E0A00000000F2
:103CE400746869732069732061206D73682074653A
:103CF400737400005F5F636D645F6D73685F746508
:103D040073745F7072696E74000000007461736B89
:103D1400310D0A007461736B320D0A006770696FAC
:103D2400612073656D0000006770696F61207365C1
:103D34006D206765740D0A0073656D20637265619B
:103D44007465206661696C65640D0A006D61696E55
:103D5400000000007469646C65000000000001004C
:103D64000200010003000100020001000400010040
:103D7400020001000300010002000100050001002F
:103D84000200010003000100020001000400010020
:103D9400020001000300010002000100060001000E
:103DA4000200010003000100020001000400010000
:103DB40002000100030001000200010005000100EF
:103DC40002000100030001000200010004000100E0
:103DD40002000100030001000200010007000100CD
:103DE40002000100030001000200010004000100C0
:103DF40002000100030001000200010005000100AF
:103E0400020001000300010002000100040001009F
:103E1400020001000300010002000100060001008D
:103E2400020001000300010002000100040001007F
:103E3400020001000300010002000100050001006E
:103E4400020001000300010002000100040001005F
:103E5400020001000300010002000100303132338E
:103E64003435363738394142434445460000000072
:103E74000A205C207C202F0A000000002D205254D0
:103E8400202D2020202020546872656164204F700A
:103E940065726174696E672053797374656D0A0085
:103EA4004A756C202034203230323300202F207C9D
:103EB400205C202020202025642E25642E256420CB
:103EC4006275696C642025730A000000203230306A
:103ED40036202D203230323020436F70797269677A
:103EE40068742062792072742D746872656164202C
:103EF4007465616D0A000000284E554C4C29000081
:103F0400303132333435363738396162636465664B
:103F140000000000746F74616C206D656D6F7279C0
:103F24003A2025640A00000075736564206D656D90
:103F34006F7279203A2025640A0000006D61786967
:103F44006D756D20616C6C6F6361746564206D6563
:103F54006D6F72793A2025640A0000006C697374ED
:103F6400206D656D6F727920757361676520696E68
:103F7400666F726D6174696F6E0000006C697374B2
:103F84005F6D656D00000000746F206672656520CA
:103F94006120626164206461746120626C6F636B90
:103FA4003A0A00006D656D3A203078253038782C57
:103FB400207573656420666C61673A2025642C2043
:103FC4006D6167696320636F64653A2030782530DA
:103FD40034780A0068656170000000006D656D202A
:103FE400696E69742C206572726F722062656769EC
:103FF4006E206164647265737320307825782C2098
:10400400616E6420656E64206164647265737320FC
:10401400307825780A000000BCE5FFFFB6E5FFFF15
:10402400D2E5FFFFDEE5FFFFE8E5FFFFD045000036
:10403400E4450000F4450000084600001446000072
:104044002046000024460000344600004446000098
:104054004C460000604600007046000078460000B0
:104064008446000090460000A4460000AC460000D0
:10407400BC460000CC460000E4460000F4460000C4
:10408400C440000048656C6C6F2052542D54687213
:10409400656164210A0000002D2D46756E63746904
:1040A4006F6E204C6973743A0A0000005F5F000071
:1040B400252D313673202D2D2025730A0000000094
:1040C400556E6B6E6F776E0064657669636500008C
:1040D400252D2A2E732020202020202020207479B2
:1040E4007065202020202020202020726566206317
:1040F4006F756E740A000000202D2D2D2D2D2D2D91
:104104002D2D2D2D2D2D2D2D2D2D2D2D2D202D2DE8
:104114002D2D2D2D2D2D2D2D0A000000252D2A2E7F
:104124002A7320252D32307320252D38640A00008F
:104134006D61696C626F7800252D2A2E7320656E7F
:104144007472792073697A652073757370656E640F
:10415400207468726561640A00000000202D2D2D12
:104164002D20202D2D2D2D202D2D2D2D2D2D2D2DA2
:104174002D2D2D2D2D2D0A00252D2A2E2A73202597
:104184003034642020253034642025643A00000053
:10419400252D2A2E2A7320253034642020253034FE
:1041A400642025640A00000073656D6170686F7295
:1041B40065000000252D2A2E73207620202073759B
:1041C4007370656E64207468726561640A0000002F
:1041D400202D2D2D202D2D2D2D2D2D2D2D2D2D2D25
:1041E4002D2D2D0A00000000252D2A2E2A732025AE
:1041F4003033642025643A00252D2A2E2A73202585
:104204003033642025640A007468726561640000B8
:10421400252D2A2E732070726920207374617475A1
:1042240073202020202020737020202020207374ED
:1042340061636B2073697A65206D6178207573659D
:1042440064206C656674207469636B2020657272E7
:104254006F720A00202D2D2D20202D2D2D2D2D2D7A
:104264002D202D2D2D2D2D2D2D2D2D2D202D2D2D94
:104274002D2D2D2D2D2D2D20202D2D2D2D2D2D2091
:10428400202D2D2D2D2D2D2D2D2D2D202D2D2D0A97
:1042940000000000252D2A2E2A73202533642000D7
:1042A400207265616479202000000000207375731A
:1042B40070656E640000000020696E69742020201F
:1042C4000000000020636C6F736520200000000074
:1042D4002072756E6E696E670000000020307825CC
:1042E4003038782030782530387820202020253048
:1042F4003264252520202030782530387820253058
:1043040033640A0074696D6572000000252D2A2E3D
:10431400732020706572696F64696320202074695A
:104324006D656F757420202020202020666C6167E5
:104334000A000000202D2D2D2D2D2D2D2D2D2D206D
:104344002D2D2D2D2D2D2D2D2D2D202D2D2D2D2DA6
:104354002D2D2D2D2D2D0A00252D2A2E2A732030AA
:1043640078253038782030782530387820000000DF
:104374006163746976617465640A000064656163ED
:10438400746976617465640A000000006375727272
:10439400656E74207469636B3A3078253038780A16
:1043A400000000006C69737420616C6C2073796D7B
:1043B400626F6C20696E2073797374656D00000000
:1043C4006C697374000000006C6973742064657612
:1043D40069636520696E2073797374656D000000EC
:1043E4005F5F636D645F6C6973745F646576696352
:1043F400650000006C6973742064657669636520E8
:10440400696E2073797374656D0000006C69737450
:104414005F646576696365006C6973742074696DA3
:10442400657220696E2073797374656D00000000F5
:104434005F5F636D645F6C6973745F74696D6572EB
:10444400000000006C6973742074696D65722069E2
:104454006E2073797374656D000000006C69737469
:104464005F74696D657200006C697374206D6169B5
:104474006C20626F7820696E2073797374656D00A7
:104484005F5F636D645F6C6973745F6D61696C62B7
:104494006F7800006C697374206D61696C20626FC1
:1044A4007820696E2073797374656D006C69737418
:1044B4005F6D61696C626F78000000006C697374F1
:1044C4002073656D6170686F726520696E20737901
:1044D4007374656D000000005F5F636D645F6C69F9
:1044E40073745F73656D00006C6973742073656D1C
:1044F4006170686F726520696E2073797374656D7D
:10450400000000006C6973745F73656D0000000047
:104514006C69737420746872656164005F5F636DB5
:10452400645F6C6973745F74687265616400000031
:104534006C69737420746872656164006C69737467
:104544005F7468726561640073686F772052542DDC
:104554005468726561642076657273696F6E206950
:104564006E666F726D6174696F6E00005F5F636D7C
:10457400645F76657273696F6E00000073686F77AD
:104584002052542D54687265616420766572736993
:104594006F6E20696E666F726D6174696F6E000074
:1045A40076657273696F6E007361792068656C6CEF
:1045B4006F20776F726C640068656C6C6F0000002C
:1045C4002D000000257300002F0000004368617275
:1045D4006163746572204465766963650000000058
:1045E400426C6F636B20446576696365000000006C
:1045F4004E6574776F726B20496E74657266616381
:10460400650000004D5444204465766963650000EC
:1046140043414E204465766963650000525443006B
:10462400536F756E6420446576696365000000000D
:104634004772617068696320446576696365000048
:10464400493243204275730055534220536C6176BE
:104654006520446576696365000000005553422077
:10466400486F737420427573000000005350492052
:1046740042757300535049204465766963650000B0
:104684005344494F2042757300000000504D2050A0
:10469400736575646F204465766963650000000086
:1046A4005069706500000000506F7274616C2044A2
:1046B400657669636500000054696D657220446520
:1046C40076696365000000004D697363656C6C6115
:1046D4006E656F757320446576696365000000003C
:1046E40053656E736F7220446576696365000000DC
:1046F400546F756368204465766963650000000043
:10470400546F6F206D616E79206172677320212070
:104714005765206F6E6C79205573653A0A00000066
:104724002573200025733A20636F6D6D616E6420DC
:104734006E6F7420666F756E642E0A0052542D5489
:104744006872656164207368656C6C20636F6D6D5D
:10475400616E64733A0A00005F5F636D645F00001A
:10476400252D313673202D2025730A0053686F7769
:1047740020746865206D656D6F727920757361674B
:104784006520696E207468652073797374656D2E75
:10479400000000005F5F636D645F66726565000022
:1047A4004C697374207468726561647320696E2047
:1047B4007468652073797374656D2E005F5F636D33
:1047C400645F70730000000052542D546872656178
:1047D40064207368656C6C2068656C702E00000042
:1047E4005F5F636D645F68656C7000006D73682063
:1047F4000000000066696E73682000003E0000003F
:1048040066696E73683A2063616E206E6F74206609
:10481400696E64206465766963653A2025730A00CD
:104824006E6F206D656D6F727920666F722073688C
:10483400656C6C0A00000000747368656C6C0000A1
:10484400736872780000000008000000256300000F
:10485400257325730000000008257320200800003C
:1048640008200800546F20696E697469616C697A64
:1048740065206465766963653A2573206661696CB1
:1048840065642E20546865206572726F7220636FB0
:1048940064652069732025640A0000001AF1FFFF93
:1048A40042F1FFFF6AF1FFFF82F1FFFF9CF1FFFF7E
:1048B400F83C0000E43C0000260E0000803F0000AD
:1048C400603F0000D01A0000C4430000A843000069
:1048D400C2260000E4430000CC4300001429000079
:1048E40010440000F8430000142900003444000080
:1048F4001C440000062A00006044000048440000F4
:10490400062A0000844400006C440000EE270000E6
:10491400B044000098440000EE270000DC4400008E
:10492400C04400008A2C000008450000EC4400004C
:104934008A2C000020450000144500000A2B0000CA
:1049440040450000344500000A2B0000704500007B
:104954004C450000B2260000A4450000804500003C
:10496400B2260000BC450000AC4500004E26000005
:1049740098470000704700003A2E0000C04700002E
:10498400A44700002C2E0000E4470000CC470000A0
:10499400B42D0000A60F0000AE0F00003438000054
:0C49A400B20F000016310000AA0F000046
:1049B00001000000C40C0020C40C0020780000009E
:1049C00002000000D40C0020D40C002020000000C5
:1049D00005000000E40C0020E40C00203000000082
:1049E00009000000F40C0020F40C0020440000003A
:1049F0000A000000040D0020040D00202C0000001F
:00000001FF
